{
    "_format": "hh-sol-artifact-1",
    "contractName": "Campaign",
    "sourceName": "contracts/Campaign.sol",
    "abi": [
        {
            "inputs": [
                {
                    "internalType": "uint256",
                    "name": "_minimumContribution",
                    "type": "uint256"
                },
                {
                    "internalType": "address",
                    "name": "_manager",
                    "type": "address"
                }
            ],
            "stateMutability": "nonpayable",
            "type": "constructor"
        },
        {
            "inputs": [
                {
                    "internalType": "uint256",
                    "name": "_value",
                    "type": "uint256"
                },
                {
                    "internalType": "uint256",
                    "name": "_approvalCount",
                    "type": "uint256"
                }
            ],
            "name": "approverRequest",
            "outputs": [],
            "stateMutability": "nonpayable",
            "type": "function"
        },
        {
            "inputs": [
                {
                    "internalType": "address",
                    "name": "",
                    "type": "address"
                }
            ],
            "name": "approvers",
            "outputs": [
                {
                    "internalType": "bool",
                    "name": "",
                    "type": "bool"
                }
            ],
            "stateMutability": "view",
            "type": "function"
        },
        {
            "inputs": [],
            "name": "approversCount",
            "outputs": [
                {
                    "internalType": "uint256",
                    "name": "",
                    "type": "uint256"
                }
            ],
            "stateMutability": "view",
            "type": "function"
        },
        {
            "inputs": [],
            "name": "contribute",
            "outputs": [],
            "stateMutability": "payable",
            "type": "function"
        },
        {
            "inputs": [
                {
                    "internalType": "string",
                    "name": "_description",
                    "type": "string"
                },
                {
                    "internalType": "uint256",
                    "name": "_value",
                    "type": "uint256"
                },
                {
                    "internalType": "address payable",
                    "name": "_recipient",
                    "type": "address"
                }
            ],
            "name": "createRequest",
            "outputs": [],
            "stateMutability": "nonpayable",
            "type": "function"
        },
        {
            "inputs": [
                {
                    "internalType": "uint256",
                    "name": "index",
                    "type": "uint256"
                }
            ],
            "name": "finalizeRequest",
            "outputs": [],
            "stateMutability": "nonpayable",
            "type": "function"
        },
        {
            "inputs": [],
            "name": "manager",
            "outputs": [
                {
                    "internalType": "address",
                    "name": "",
                    "type": "address"
                }
            ],
            "stateMutability": "view",
            "type": "function"
        },
        {
            "inputs": [],
            "name": "minimumContribution",
            "outputs": [
                {
                    "internalType": "uint256",
                    "name": "",
                    "type": "uint256"
                }
            ],
            "stateMutability": "view",
            "type": "function"
        },
        {
            "inputs": [
                {
                    "internalType": "uint256",
                    "name": "",
                    "type": "uint256"
                }
            ],
            "name": "requests",
            "outputs": [
                {
                    "internalType": "uint256",
                    "name": "id",
                    "type": "uint256"
                },
                {
                    "internalType": "string",
                    "name": "description",
                    "type": "string"
                },
                {
                    "internalType": "uint256",
                    "name": "value",
                    "type": "uint256"
                },
                {
                    "internalType": "address payable",
                    "name": "recipient",
                    "type": "address"
                },
                {
                    "internalType": "bool",
                    "name": "complete",
                    "type": "bool"
                },
                {
                    "internalType": "uint256",
                    "name": "approvalCount",
                    "type": "uint256"
                }
            ],
            "stateMutability": "view",
            "type": "function"
        }
    ],
    "bytecode": "0x60806040523480156200001157600080fd5b50604051620013ae380380620013ae83398181016040528101906200003791906200012c565b8160028190555080600160006101000a81548173ffffffffffffffffffffffffffffffffffffffff021916908373ffffffffffffffffffffffffffffffffffffffff160217905550505062000173565b600080fd5b6000819050919050565b620000a1816200008c565b8114620000ad57600080fd5b50565b600081519050620000c18162000096565b92915050565b600073ffffffffffffffffffffffffffffffffffffffff82169050919050565b6000620000f482620000c7565b9050919050565b6200010681620000e7565b81146200011257600080fd5b50565b6000815190506200012681620000fb565b92915050565b6000806040838503121562000146576200014562000087565b5b60006200015685828601620000b0565b9250506020620001698582860162000115565b9150509250929050565b61122b80620001836000396000f3fe6080604052600436106100865760003560e01c806381d12c581161005957806381d12c581461014557806382fde093146101875780638a9cfd55146101b2578063937e09b1146101db578063d7bb99ba1461020657610086565b8063034410061461008b578063035ae785146100b45780630a144391146100dd578063481c6a751461011a575b600080fd5b34801561009757600080fd5b506100b260048036038101906100ad919061098b565b610210565b005b3480156100c057600080fd5b506100db60048036038101906100d691906109b8565b61038f565b005b3480156100e957600080fd5b5061010460048036038101906100ff9190610a56565b610452565b6040516101119190610a9e565b60405180910390f35b34801561012657600080fd5b5061012f610472565b60405161013c9190610ac8565b60405180910390f35b34801561015157600080fd5b5061016c6004803603810190610167919061098b565b610498565b60405161017e96959493929190610bac565b60405180910390f35b34801561019357600080fd5b5061019c610599565b6040516101a99190610c14565b60405180910390f35b3480156101be57600080fd5b506101d960048036038101906101d49190610d90565b61059f565b005b3480156101e757600080fd5b506101f06107e1565b6040516101fd9190610c14565b60405180910390f35b61020e6107e7565b005b600160009054906101000a900473ffffffffffffffffffffffffffffffffffffffff1673ffffffffffffffffffffffffffffffffffffffff163373ffffffffffffffffffffffffffffffffffffffff16146102a0576040517f08c379a000000000000000000000000000000000000000000000000000000000815260040161029790610e71565b60405180910390fd5b60008082815481106102b5576102b4610e91565b5b9060005260206000209060050201905060026004546102d49190610f1e565b8160040154116102e357600080fd5b8060030160149054906101000a900460ff16156102ff57600080fd5b8060030160009054906101000a900473ffffffffffffffffffffffffffffffffffffffff1673ffffffffffffffffffffffffffffffffffffffff166108fc82600201549081150290604051600060405180830381858888f1935050505015801561036d573d6000803e3d6000fd5b5060018160030160146101000a81548160ff0219169083151502179055505050565b478211156103d2576040517f08c379a00000000000000000000000000000000000000000000000000000000081526004016103c990610f9b565b60405180910390fd5b60008080549050101561041a576040517f08c379a000000000000000000000000000000000000000000000000000000000815260040161041190611007565b60405180910390fd5b6000806000805490508154811061043457610433610e91565b5b90600052602060002090600502019050818160040181905550505050565b60036020528060005260406000206000915054906101000a900460ff1681565b600160009054906101000a900473ffffffffffffffffffffffffffffffffffffffff1681565b600081815481106104a857600080fd5b90600052602060002090600502016000915090508060000154908060010180546104d190611056565b80601f01602080910402602001604051908101604052809291908181526020018280546104fd90611056565b801561054a5780601f1061051f5761010080835404028352916020019161054a565b820191906000526020600020905b81548152906001019060200180831161052d57829003601f168201915b5050505050908060020154908060030160009054906101000a900473ffffffffffffffffffffffffffffffffffffffff16908060030160149054906101000a900460ff16908060040154905086565b60045481565b600160009054906101000a900473ffffffffffffffffffffffffffffffffffffffff1673ffffffffffffffffffffffffffffffffffffffff163373ffffffffffffffffffffffffffffffffffffffff161461062f576040517f08c379a000000000000000000000000000000000000000000000000000000000815260040161062690610e71565b60405180910390fd5b600360003373ffffffffffffffffffffffffffffffffffffffff1673ffffffffffffffffffffffffffffffffffffffff16815260200190815260200160002060009054906101000a900460ff166106bb576040517f08c379a00000000000000000000000000000000000000000000000000000000081526004016106b2906110fa565b60405180910390fd5b60006040518060c0016040528060008054905081526020018581526020018481526020018373ffffffffffffffffffffffffffffffffffffffff16815260200160001515815260200160008152509050600081908060018154018082558091505060019003906000526020600020906005020160009091909190915060008201518160000155602082015181600101908051906020019061075d92919061089e565b506040820151816002015560608201518160030160006101000a81548173ffffffffffffffffffffffffffffffffffffffff021916908373ffffffffffffffffffffffffffffffffffffffff16021790555060808201518160030160146101000a81548160ff02191690831515021790555060a08201518160040155505050505050565b60025481565b60025434101561082c576040517f08c379a00000000000000000000000000000000000000000000000000000000081526004016108239061118c565b60405180910390fd5b6001600360003373ffffffffffffffffffffffffffffffffffffffff1673ffffffffffffffffffffffffffffffffffffffff16815260200190815260200160002060006101000a81548160ff02191690831515021790555060046000815480929190610897906111ac565b9190505550565b8280546108aa90611056565b90600052602060002090601f0160209004810192826108cc5760008555610913565b82601f106108e557805160ff1916838001178555610913565b82800160010185558215610913579182015b828111156109125782518255916020019190600101906108f7565b5b5090506109209190610924565b5090565b5b8082111561093d576000816000905550600101610925565b5090565b6000604051905090565b600080fd5b600080fd5b6000819050919050565b61096881610955565b811461097357600080fd5b50565b6000813590506109858161095f565b92915050565b6000602082840312156109a1576109a061094b565b5b60006109af84828501610976565b91505092915050565b600080604083850312156109cf576109ce61094b565b5b60006109dd85828601610976565b92505060206109ee85828601610976565b9150509250929050565b600073ffffffffffffffffffffffffffffffffffffffff82169050919050565b6000610a23826109f8565b9050919050565b610a3381610a18565b8114610a3e57600080fd5b50565b600081359050610a5081610a2a565b92915050565b600060208284031215610a6c57610a6b61094b565b5b6000610a7a84828501610a41565b91505092915050565b60008115159050919050565b610a9881610a83565b82525050565b6000602082019050610ab36000830184610a8f565b92915050565b610ac281610a18565b82525050565b6000602082019050610add6000830184610ab9565b92915050565b610aec81610955565b82525050565b600081519050919050565b600082825260208201905092915050565b60005b83811015610b2c578082015181840152602081019050610b11565b83811115610b3b576000848401525b50505050565b6000601f19601f8301169050919050565b6000610b5d82610af2565b610b678185610afd565b9350610b77818560208601610b0e565b610b8081610b41565b840191505092915050565b6000610b96826109f8565b9050919050565b610ba681610b8b565b82525050565b600060c082019050610bc16000830189610ae3565b8181036020830152610bd38188610b52565b9050610be26040830187610ae3565b610bef6060830186610b9d565b610bfc6080830185610a8f565b610c0960a0830184610ae3565b979650505050505050565b6000602082019050610c296000830184610ae3565b92915050565b600080fd5b600080fd5b7f4e487b7100000000000000000000000000000000000000000000000000000000600052604160045260246000fd5b610c7182610b41565b810181811067ffffffffffffffff82111715610c9057610c8f610c39565b5b80604052505050565b6000610ca3610941565b9050610caf8282610c68565b919050565b600067ffffffffffffffff821115610ccf57610cce610c39565b5b610cd882610b41565b9050602081019050919050565b82818337600083830152505050565b6000610d07610d0284610cb4565b610c99565b905082815260208101848484011115610d2357610d22610c34565b5b610d2e848285610ce5565b509392505050565b600082601f830112610d4b57610d4a610c2f565b5b8135610d5b848260208601610cf4565b91505092915050565b610d6d81610b8b565b8114610d7857600080fd5b50565b600081359050610d8a81610d64565b92915050565b600080600060608486031215610da957610da861094b565b5b600084013567ffffffffffffffff811115610dc757610dc6610950565b5b610dd386828701610d36565b9350506020610de486828701610976565b9250506040610df586828701610d7b565b9150509250925092565b7f4f6e6c7920746865206d616e616765722063616e2063616c6c2074686973206660008201527f756e6374696f6e00000000000000000000000000000000000000000000000000602082015250565b6000610e5b602783610afd565b9150610e6682610dff565b604082019050919050565b60006020820190508181036000830152610e8a81610e4e565b9050919050565b7f4e487b7100000000000000000000000000000000000000000000000000000000600052603260045260246000fd5b7f4e487b7100000000000000000000000000000000000000000000000000000000600052601260045260246000fd5b7f4e487b7100000000000000000000000000000000000000000000000000000000600052601160045260246000fd5b6000610f2982610955565b9150610f3483610955565b925082610f4457610f43610ec0565b5b828204905092915050565b7f4e6f7420656e6f7567682066756e647320617661696c61626c65000000000000600082015250565b6000610f85601a83610afd565b9150610f9082610f4f565b602082019050919050565b60006020820190508181036000830152610fb481610f78565b9050919050565b7f4e6f20726571756573747320617661696c61626c650000000000000000000000600082015250565b6000610ff1601583610afd565b9150610ffc82610fbb565b602082019050919050565b6000602082019050818103600083015261102081610fe4565b9050919050565b7f4e487b7100000000000000000000000000000000000000000000000000000000600052602260045260246000fd5b6000600282049050600182168061106e57607f821691505b6020821081141561108257611081611027565b5b50919050565b7f4f6e6c7920617070726f766572732063616e206372656174652072657175657360008201527f7473000000000000000000000000000000000000000000000000000000000000602082015250565b60006110e4602283610afd565b91506110ef82611088565b604082019050919050565b60006020820190508181036000830152611113816110d7565b9050919050565b7f436f6e747269627574696f6e20616d6f756e74206973206c657373207468616e60008201527f206d696e696d756d000000000000000000000000000000000000000000000000602082015250565b6000611176602883610afd565b91506111818261111a565b604082019050919050565b600060208201905081810360008301526111a581611169565b9050919050565b60006111b782610955565b91507fffffffffffffffffffffffffffffffffffffffffffffffffffffffffffffffff8214156111ea576111e9610eef565b5b60018201905091905056fea26469706673582212209e1c1232ebe68a3dc8fc71981b388a4ca9685fd832f94879601e93e6a79305e064736f6c63430008090033",
    "linkReferences": {},
    "deployedLinkReferences": {}
}